:020000000130CD
:10003000758920758DFD758BFD7598D8758700D2F3
:100040008E7D007E007F0074FFF5B030B30530B5C3
:100050000C014730B3FD7A07120067014730B5FD48
:100060007B0F12008D0147EAD29BF5993099FDC2B2
:10007000993098FDC298E5996A600122C29B0FBF32
:100080000A027F00EFF5993099FDC29922EBD29BCD
:10009000F5993099FDC2993098FDC298E5996B6049
:1000A0000122C29B0EBE0A027E00EEF5993099FD38
:0300B000C29922D0
:00000001FF
